S016000053696D756C6174696F6E436F64652E737265636E
S11300000C94A7000C94C4000C94C4000C94C40079
S11300100C94C4000C94C4000C94C4000C94C4004C
S11300200C94C4000C94C4000C94C4000C94C4003C
S11300300C94C4000C94C4000C94C4000C94C4002C
S11300400C94C4000C94C4000C94C4000C94C4001C
S11300500C94C40000407A10F35A00A0724E1809A0
S11300600010A5D4E80000E87648170000E40B541B
S1130070020000CA9A3B000000E1F50500008096EA
S11300809800000040420F000000A086010000001C
S1130090102700000000E8030000000064000000D6
S11300A000000A00000000000100000000002C769F
S11300B0D888DC674F0823DFC1DFAE59E1B1B796BA
S11300C0E5E3E453C63AE651997696E8E6C2842617
S11300D0EB898C9B62ED407C6FFCEFBC9C9F40F2F3
S11300E0BAA56FA5F490055A2AF75C936B6CF9676F
S11300F06DC11BFCE0E40D47FEF520E6B500D0ED34
S1130100902E0300943577050080841E080000209B
S11301104E0A000000C80C333333330F986E128339
S11301201141EF8D2114893BE65516CFFEE6DB180D
S1130130D1844B381BF77C1D901DA4BBE4242032D2
S113014084725E228100C9F124ECA1E53D271124CB
S11301501FBECFE5D8E0DEBFCDBF10E0A0E6B0E023
S1130160ECE7F9E102C005900D92AC3EB107D9F776
S113017020E0ACEEB0E001C01D92AC3EB207E1F766
S11301800E947B040C94BC0C0C940000672B09F0B7
S1130190DFC0009721F48BB38E7F8BBB0895813031
S11301A0910521F48BB38D7F8BBB0895823091052B
S11301B021F48BB38B7F8BBB08958330910521F49D
S11301C08BB3877F8BBB08958430910521F48BB367
S11301D08F7E8BBB08958530910521F48BB38F7D81
S11301E08BBB08958630910521F48BB38F7B8BBB39
S11301F008958730910521F48BB38F778BBB0895D5
S11302008A30910521F488B38E7F88BB08958B30A2
S1130210910521F488B38D7F88BB08958C309105B6
S113022021F488B38B7F88BB08958D30910521F428
S113023088B3877F88BB08958E30910521F488B3F5
S11302408F7E88BB08958F30910521F488B38F7D0C
S113025088BB08958031910521F488B38F7B88BBD6
S113026008958131910521F488B38F7788BB08956F
S11302708431910521F485B38E7F85BB0895853142
S1130280910521F485B38D7F85BB08958631910551
S113029021F485B38B7F85BB08958731910521F4C3
S11302A085B3877F85BB08958831910521F485B393
S11302B08F7E85BB08958931910521F485B38F7DA7
S11302C085BB08958A31910521F485B38F7B85BB65
S11302D008958B31910521F485B38F7785BB0895FB
S11302E08E31910521F482B38E7F82BB08958F31C4
S11302F0910521F482B38D7F82BB089580329105EC
S113030021F482B38B7F82BB08958132910521F45D
S113031082B3877F82BB08958232910521F482B330
S11303208F7E82BB08958332910521F482B38F7D41
S113033082BB08958432910521F482B38F7B82BB02
S11303400895859709F0E1C082B38F7782BB089541
S1130350009721F48BB381608BBB089581309105A4
S113036021F48BB382608BBB08958230910521F414
S11303708BB384608BBB08958330910521F48BB3D8
S113038088608BBB08958430910521F48BB3806120
S11303908BBB08958530910521F48BB380628BBBB0
S11303A008958630910521F48BB380648BBB089546
S11303B08730910521F48BB380688BBB08958A3014
S11303C0910521F488B3816088BB08958B30910531
S11303D021F488B3826088BB08958C30910521F4A0
S11303E088B3846088BB08958D30910521F488B367
S11303F0886088BB08958E30910521F488B38061AC
S113040088BB08958F30910521F488B3806288BB3E
S113041008958031910521F488B3806488BB0895E0
S11304208131910521F488B3806888BB08958431B3
S1130430910521F485B3816085BB089585319105CB
S113044021F485B3826085BB08958631910521F43A
S113045085B3846085BB08958731910521F485B304
S1130460886085BB08958831910521F485B3806146
S113047085BB08958931910521F485B3806285BBDC
S113048008958A31910521F485B3806485BB08956C
S11304908B31910521F485B3806885BB08958E3135
S11304A0910521F482B3816082BB08958F31910557
S11304B021F482B3826082BB08958032910521F4D5
S11304C082B3846082BB08958132910521F482B3A2
S11304D0886082BB08958232910521F482B38061E1
S11304E082BB08958332910521F482B3806282BB7A
S11304F008958432910521F482B3806482BB089507
S1130500859719F482B3806882BB0895CF93C82F6E
S113051080FF07C061E070E082E290E00E94C600C4
S113052006C060E070E082E290E00E94C600C1FF75
S113053007C061E070E083E290E00E94C60006C05C
S113054060E070E083E290E00E94C600C2FF07C052
S113055061E070E084E290E00E94C60006C060E0C2
S113056070E084E290E00E94C600C3FF07C061E02F
S113057070E085E290E00E94C60006C060E070E092
S113058085E290E00E94C600CF910895CF93C82FD2
S113059060E070E08AE190E00E94C6008C2F0E9427
S11305A0860261E070E08BE190E00E94C60089EF72
S11305B090E00197F1F700C0000060E070E08BE18B
S11305C090E00E94C60089EF90E00197F1F700C027
S11305D00000CF91089580E00E94C60281E00E944D
S11305E0C6020895CF93813061F480E8860FC62F48
S11305F0CF7082958F700E94C6028C2F0E94C60213
S11306000DC0823059F480EC860FC62FCF708295CE
S11306108F700E94C6028C2F0E94C602CF9108954B
S113062080E00E94860287E893E10197F1F700C019
S1130630000083E00E94C60281EE94E00197F1F786
S113064000C0000083E00E94C6028DEB9AE001978F
S1130650F1F700C0000083E00E94C60282E00E941D
S1130660C60282E00E94C60288E00E94C60280E0C0
S11306700E94C6028CE00E94C60280E00E94C6026C
S113068086E00E94C6020895CF93DF93D82FDF70CF
S1130690C82FC07F61E070E08AE190E00E94C6004C
S11306A08C2F82958F700E94860261E070E08BE14E
S11306B090E00E94C60089EF90E00197F1F700C036
S11306C0000060E070E08BE190E00E94C60089EFDA
S11306D090E00197F1F700C000008D2F0E94860280
S11306E061E070E08BE190E00E94C60089EF90E049
S11306F00197F1F700C0000060E070E08BE190E04A
S11307000E94C60089EF90E00197F1F700C0000055
S1130710DF91CF9108950F931F93CF93DF938C01B3
S1130720C0E0D0E003C00E9444032196F801EC0F1E
S1130730FD1F80818111F7CFDF91CF911F910F9120
S1130740089589B990BD80B5866880BD88E18AB96D
S113075008955D9BFECF8CB908950F931F93CF939B
S1130760DF938C01C0E0D0E003C00E94A90321966E
S1130770F801EC0FFD1F80818111F7CFDF91CF913C
S11307801F910F910895CF92DF92EF92FF920F93F2
S11307901F93CF93DF93CDB7DEB7A8970FB6F89426
S11307A0DEBF0FBECDBF6B017A011A821982FE0132
S11307B0339626E2DF011D922A95E9F78E010F5F39
S11307C01F4FF80101900020E9F7319720E738E442
S11307D0318320832AE330E033832283BC01C801C0
S11307E00E94480AD8010D900020E9F711978DE086
S11307F0EBE9F0E001900D928A95E1F7B601C801AA
S11308000E94480AD8010D900020E9F7119787E06B
S1130810E8EAF0E001900D928A95E1F7B701C8018A
S11308200E94480A81E40E94A90387EA91E601979D
S1130830F1F700C0000084E50E94A9039FE9A6E83F
S1130840B1E09150A040B040E1F700C000008DE05D
S11308500E94A9032FE986E891E02150804090404E
S1130860E1F700C000008AE00E94A903AFE9B6E8FE
S113087021E0A150B0402040E1F700C0000080E733
S113088090E00E94AD038FE79AE1A6E0815090408A
S1130890A040E1F700C000008FEA90E00E94AD03A1
S11308A0BFE32DE083E0B15020408040E1F700C079
S11308B00000C8010E94AD038AE10E94A9038DE0F3
S11308C00E94A9038AE00E94A903A8960FB6F8948F
S11308D0DEBF0FBECDBFDF91CF911F910F91FF906F
S11308E0EF90DF90CF90089524B185B190E0982FD8
S11308F08827822B0895CF93DF93CDB7DEB76B970C
S11309000FB6F894DEBF0FBECDBF8FEF81BB84BBA3
S113091087BB0E9410030E94EB0283E390E00E94D5
S1130920A10360E081E00E94F2028AEC90E00E9460
S11309308B030E94EB0285E0E6EEF0E0DE01119607
S113094001900D928A95E1F785E0E6EEF0E0DE0194
S1130950169601900D928A95E1F785E0E6EEF0E0B7
S1130960DE011B9601900D928A95E1F718BAA12C2D
S1130970B12C812C912C412C512C83E487B980E833
S113098086B900E010E0C12CD12C760128C086B1D4
S1130990806486B93699FECF0E947404BC0180E05D
S11309A090E00E94B70820E030E040EA50E40E9462
S11309B06E0920E030E040E85AE30E946E0920E02E
S11309C030E040E251E40E946E099B01AC01C70192
S11309D0B6010E949E076B017C010F5F1F4F05301B
S11309E01105ACF220E030E040EA50E4C701B60162
S11309F00E940F08688F798F8A8F9B8F81E487B953
S1130A0080E886B900E010E0C12CD12C760130C01A
S1130A1086B1806486B93699FECF0E947404BC0105
S1130A2080E090E00E94B70820E030E040EA50E423
S1130A300E946E0920E030E040E85AE30E946E090B
S1130A4026E636E646EB50E40E946E099B01AC01B3
S1130A5062E578EB8AEA91E40E949D079B01AC0170
S1130A60C701B6010E949E076B017C010F5F1F4FF7
S1130A70043611056CF220E030E048EC52E4C70182
S1130A80B6010E940F086B017C018E010F5F1F4F9E
S1130A9021E044E00E94280A66E081E00E94F2021C
S1130AA085ED90E00E948B0366E082E00E94F202F2
S1130AB0C8010E948B0320E030E040ED50E4C70100
S1130AC0B6010E940A08882374F020E030E048E070
S1130AD051E4C701B6010E946909181644F422249E
S1130AE02394312C06C022242394312C02C0212CBF
S1130AF0312C21E0A216B10439F081E0281631042A
S1130B0019F08A94892889F441145104E9F4AE0156
S1130B104A5F5F4FBE01655F7F4FCE0101960E9421
S1130B20C30344244394512C0FC04114510461F075
S1130B30AE014A5F5F4FBE01655F7F4FCE010196F4
S1130B400E94C303412C512C48BA2FE38DE093E05B
S1130B50215080409040E1F700C0000082E487B952
S1130B6080E886B900E010E01C8A1D8A1E8A1F8A6C
S1130B7035018AC086B1806486B93699FECF0E9459
S1130B807404BC0180E090E00E94B70820E030E0EB
S1130B9040EA50E40E946E0920E030E040E85AE365
S1130BA00E946E096B017C0120E030E048EC51E4C6
S1130BB0688D798D8A8D9B8D0E949D072AE037ED83
S1130BC043EA5CE30E946E0920E030E040E85FE322
S1130BD00E949E074B015C01A7019601C701B60163
S1130BE00E946E099B01AC01C701B6010E946E0907
S1130BF025E83BE645E053E40E946E09688B798B57
S1130C008A8B9B8B29E23CED4FE753E4C701B60185
S1130C100E946E099B01AC01C701B6010E946E09D6
S1130C209B01AC01688979898A899B890E949D0707
S1130C30688B798B8A8B9B8B26EF38E546E554E4E9
S1130C40C701B6010E946E099B01AC0168897989CC
S1130C508A899B890E949E0720E030E040E05FE3A0
S1130C600E946E09A50194010E940F089B01AC012A
S1130C706C897D898E899F890E949E076C8B7D8BF0
S1130C808E8B9F8B0F5F1F4F053011050CF472CFB5
S1130C90530120E030E040EA50E46C897D898E897C
S1130CA09F890E940F086B017C018E010A5F1F4F10
S1130CB020E044E00E94280A6BE081E00E94F202F6
S1130CC08AED90E00E948B036BE082E00E94F202C6
S1130CD0C8010E948B0320E030E04AE754E4C701D6
S1130CE0B6010E946909181624F488248394912C6F
S1130CF002C0812C912CAA94AB2841F081E02816E3
S1130D00310421F091E08916910489F441145104CD
S1130D10E9F4AE014A5F5F4FBE01655F7F4FCE01CC
S1130D2001960E94C30344244394512C0FC04114E0
S1130D30510461F0AE014A5F5F4FBE01655F7F4FB2
S1130D40CE0101960E94C303412C512C48BA2FE3D3
S1130D508DE093E0215080409040E1F700C0000016
S1130D6084E487B980E886B9A12CB12C1C8A1D8A39
S1130D701E8A1F8A74C086B1806486B93699FECFF4
S1130D800E947404BC0180E090E00E94B70820E057
S1130D9030E040EA50E40E946E0920E030E040E890
S1130DA05AE30E946E096B017C0126E632E743EBAD
S1130DB055E40E946E09688B798B8A8B9B8B2DEC92
S1130DC03CE04CE854E4C701B6010E946E099B0163
S1130DD0AC01C701B6010E946E099B01AC01688990
S1130DE079898A899B890E949D0723E337E048E833
S1130DF055E40E949D070E94DB090E9481088B0133
S1130E0026E636E646E850E4C701B6010E946909C1
S1130E1088235CF420E030E040E250E4C701B601EE
S1130E200E940A08181624F405C000E010E002C06D
S1130E3008EB1BE0B801110F880B990B0E94B9084D
S1130E409B01AC016C897D898E899F890E949E07D4
S1130E506C8B7D8B8E8B9F8B2FEFA21AB20A85E051
S1130E60A816B1040CF487CF20E030E040EA50E447
S1130E706C897D898E899F890E940F080E94810850
S1130E807B01072E000C880B990B0E94B9088E0178
S1130E90055F1F4F20E044E00E94280A60E081E0E3
S1130EA00E94F20280EE90E00E948B0360E082E0F8
S1130EB00E94F202C8010E948B039BE0E916F10430
S1130EC024F0AA24A394B12C02C0A12CB12C21E0BB
S1130ED0A216B10439F02A94232821F091E089164E
S1130EE0910489F441145104E9F4AE014A5F5F4F5F
S1130EF0BE01655F7F4FCE0101960E94C303442467
S1130F004394512C0FC04114510461F0AE014A5F67
S1130F105F4FBE01655F7F4FCE0101960E94C30300
S1130F20412C512C48BA2FE38DE093E021508040AE
S1130F309040E1F700C0000020CD5058BB27AA27FD
S1130F400E94B5070C942F090E94210938F00E94D1
S1130F50280920F039F49F3F19F426F40C941E0953
S1130F600EF4E095E7FB0C941809E92F0E94400960
S1130F7058F3BA17620773078407950720F079F4CA
S1130F80A6F50C9462090EF4E0950B2EBA2FA02D51
S1130F900B01B90190010C01CA01A0011124FF2722
S1130FA0591B99F0593F50F4503E68F11A16F0401D
S1130FB0A22F232F342F4427585FF3CF469537951C
S1130FC02795A795F0405395C9F77EF41F16BA0BE1
S1130FD0620B730B840BBAF09150A1F0FF0FBB1F8F
S1130FE0661F771F881FC2F70EC0BA0F621F731FD8
S1130FF0841F48F4879577956795B795F7959E3F35
S113100008F0B0CF9395880F08F09927EE0F9795C5
S1131010879508950E94F40808F481E008950E94D9
S113102023080C942F090E94280958F00E942109D2
S113103040F029F45F3F29F00C94180951110C94E5
S113104063090C941E090E94400968F39923B1F3C3
S1131050552391F3951B550BBB27AA2762177307DA
S1131060840738F09F5F5F4F220F331F441FAA1F6E
S1131070A9F335D00E2E3AF0E0E832D0915050402A
S1131080E695001CCAF72BD0FE2F29D0660F771FD8
S1131090881FBB1F261737074807AB07B0E809F0BE
S11310A0BB0B802DBF01FF2793585F4F3AF09E3F43
S11310B0510578F00C9418090C9463095F3FE4F32C
S11310C0983ED4F3869577956795B795F7959F5F86
S11310D0C9F7880F911D9695879597F90895E1E0D2
S11310E0660F771F881FBB1F621773078407BA0731
S11310F020F0621B730B840BBA0BEE1F88F7E0958C
S113110008950E9488086894B1110C9463090895A5
S11311100E94480988F09F5798F0B92F9927B75132
S1131120B0F0E1F0660F771F881F991F1AF0BA9587
S1131130C9F714C0B13091F00E946209B1E008957A
S11311400C946209672F782F8827B85F39F0B93F6C
S1131150CCF3869577956795B395D9F73EF490953A
S11311608095709561957F4F8F4F9F4F0895E894B8
S113117009C097FB3EF490958095709561957F4FDB
S11311808F4F9F4F9923A9F0F92F96E9BB27939589
S1131190F695879577956795B795F111F8CFFAF499
S11311A0BB0F11F460FF1BC06F5F7F4F8F4F9F4FCA
S11311B016C0882311F096E911C0772321F09EE828
S11311C0872F762F05C0662371F096E8862F70E08E
S11311D060E02AF09A95660F771F881FDAF7880F68
S11311E09695879597F90895990F0008550FAA0BBE
S11311F0E0E8FEEF16161706E807F907C0F0121626
S11312001306E407F50798F0621B730B840B950B28
S113121039F40A2661F0232B242B252B21F408957D
S11312200A2609F4A140A6958FEF811D811D08951A
S113123097F99F6780E870E060E008959FEF80EC85
S1131240089500240A941616170618060906089528
S113125000240A9412161306140605060895092E8E
S11312600394000C11F4882352F0BB0F40F4BF2BFD
S113127011F460FF04C06F5F7F4F8F4F9F4F08953D
S113128057FD9058440F551F59F05F3F71F0479533
S1131290880F97FB991F61F09F3F79F08795089518
S11312A0121613061406551FF2CF4695F1DF08C037
S11312B0161617061806991FF1CF86957105610554
S11312C008940895E894BB2766277727CB0197F9FC
S11312D008950E94F40808F48FEF08950E9481098C
S11312E00C942F090E94210938F00E94280920F04B
S11312F0952311F00C9418090C941E0911240C94D4
S113130063090E94400970F3959FC1F3950F50E063
S1131310551F629FF001729FBB27F00DB11D639FA3
S1131320AA27F00DB11DAA1F649F6627B00DA11D49
S1131330661F829F2227B00DA11D621F739FB00DEF
S1131340A11D621F839FA00D611D221F749F33275F
S1131350A00D611D231F849F600D211D822F762FF8
S11313606A2F11249F5750409AF0F1F088234AF0D5
S1131370EE0FFF1FBB1F661F771F881F9150504041
S1131380A9F79E3F510580F00C9418090C94630949
S11313905F3FE4F3983ED4F3869577956795B795C8
S11313A0F795E7959F5FC1F7FE2B880F911D9695E2
S11313B0879597F908950E944809E8F09E37E8F068
S11313C09639B8F49E3848F4672F782F8827985FA9
S11313D0F9CF86957795679593959539D0F3B62F80
S11313E0B1706B0F711D811D20F4879577956795FA
S11313F093950C94FF090C941A0A0C94630988239E
S113140071F4772321F09850872B762F07C0662339
S113141011F499270DC09051862B70E060E02AF0FA
S11314209A95660F771F881FDAF7880F9695879528
S113143097F908959F3F31F0915020F4879577955F
S11314406795B795880F911D9695879597F9089597
S1131450EF920F931F93CF93DF93E80147FD02C0F0
S113146034E001C034E1042E000C550B57FF03C0D7
S1131470519541955109E32E022F242FAE010E946C
S1131480530ACE01DF91CF911F910F91EF900895F0
S1131490FB01DC010D900020E9F7119701900D92FA
S11314A00020E1F70895A9E0B0E0E9E5FAE00C9442
S11314B08B0C6A01122FB02E2BE3201720F0FF248F
S11314C0F394F00E02C02CE3F22E0F2D27E0AE01B0
S11314D04F5F5F4F0E94AD0BBC014981842F89701F
S11314E0813031F0E1FC06C0E0FE06C090E205C0A8
S11314F09DE203C09BE201C090E05E2D507143FF6A
S11315003CC0911102C083E001C084E0811718F44B
S1131510212F281B01C020E051110BC0F601822F9E
S113152030E2882319F031938150FBCFC20ED11CD5
S113153020E0992329F0D6019C93F60131966F019E
S1131540C6010396E2FE0AC03EE4D6013C9341E4A0
S113155011964C93119712963C9306C03EE6F60101
S1131560308341E641833283FC01322F40E233234E
S113157009F442C041933150FACF42FF44C0911163
S113158002C083E001C084E0811718F4212F281BD6
S113159001C020E051110BC0F601822F30E28823F4
S11315A019F031938150FBCFC20ED11C20E0992356
S11315B029F0D6019C93F60131966F01C60103967A
S11315C0E2FE0BC039E4D6013C933EE411963C9311
S11315D0119736E412963C9307C039E6F60130833E
S11315E03EE6318336E63283FC01322F40E2332378
S11315F019F041933150FBCFFC01E20FF11D108231
S11316008EEF9FEFA6C021E030E0911102C020E0F0
S113161030E0161617061CF4FB01319602C0E1E017
S1131620F0E02E0F3F1FBB2021F0EB2DF0E03196B0
S113163002C0E0E0F0E02E0F3F1FE12FF0E02E1794
S11316403F071CF4121B212F01C020E08E2D88714E
S113165059F4F601822F30E2882319F03193815036
S1131660FBCFC20ED11C20E0992329F0D6019C9314
S1131670F60131966F0151110BC0F601822F90E3F0
S1131680882319F091938150FBCFC20ED11C20E026
S11316900F2D060F9A81342F307144FF03C091330C
S11316A009F40150101624F4093018F008E001C0C0
S11316B001E0AB0177FF02C040E050E0FB01E41B16
S11316C0F50BA1E0B0E0AC0FBD1FEA0FFB1F8EE2EB
S11316D0A82E4B01801A91080B2D10E0119501954D
S11316E011094F3FBFEF5B0721F4D601AC9211966D
S11316F06D01641775072CF08416950614F4818126
S113170001C080E3415051093196D60111967D0103
S11317104017510724F0D6018C936701E2CF641778
S1131720750739F4963320F4953319F4311101C057
S113173081E3F6018083F701822F90E2882319F078
S113174091938150FBCFF701E20FF11D108280E0ED
S113175090E02996ECE00C94A70C283008F027E0E0
S11317603327DA01990F311D87FD916000966105D9
S1131770710539F432602E5F3D9330E32A95E1F729
S113178008959F3F30F080387105610509F03C5F92
S11317903C5F3D93913008F08068911DDF93CF93B7
S11317A01F930F93FF92EF92192F987F9695E92F2D
S11317B096959695E90FFF27E255FF4F9927332712
S11317C0EE24FF24A701E70105900894079428F468
S11317D0360FE71EF81E491F511D660F771F881F1D
S11317E0991F0694A1F70590079428F4E70EF81EB4
S11317F0491F561FC11D770F881F991F661F069426
S1131800A1F70590079428F4F80E491F561FC71F27
S1131810D11D880F991F661F771F0694A1F70590A5
S1131820079420F4490F561FC71FD81F990F661F2E
S1131830771F881F0694A9F784911095177041F0BB
S1131840D695C79557954795F794E7941A95C1F798
S1131850E4E5F0E0689415901591359165919591C2
S113186005907FE27395E118F10A430B560BC90BFF
S1131870D009C0F7E10CF11E431F561FC91FD01D2C
S11318807EF4703311F48A95E6CFE894015030F079
S1131890080F0AF40027021708F4202F2395022FBB
S11318A07A3328F079E37D932A95E9F710C07D9384
S11318B02A9589F606949795679537951795179401
S11318C0E118F10A430B560BC90BD00998F0239584
S11318D07E9173957A3308F070E37C932013B8F704
S11318E07E9170617D9330F0839571E37D9370E315
S11318F02A95E1F71124EF90FF900F911F91CF915A
S1131900DF91992787FD909508952F923F924F92EA
S11319105F926F927F928F929F92AF92BF92CF927B
S1131920DF92EF92FF920F931F93CF93DF93CDB784
S1131930DEB7CA1BDB0B0FB6F894DEBF0FBECDBFFC
S113194009942A88398848885F846E847D848C84CD
S11319509B84AA84B984C884DF80EE80FD800C81D6
S11319601B81AA81B981CE0FD11D0FB6F894DEBFB9
S10F19700FBECDBFED010895F894FFCF29
S113197C53656E64696E67206D657373616765008A
S113198C41542B434D47463D310A0D0020466972A4
S113199C7374206D657373616765202020004D6539
S11319AC73736167652073656E74002C20547572B3
S11319BC6269646974793A002C205444533A0041A6
S11319CC542B434D47533D222B383830313738395B
S11319DC393439363135220D0A0047534D206D6F99
S11319EC64756C650070483A20005444533A2000E6
S10F19FC5475723A20006E756C6C00008B
S9030000FC
