:100000000C94A7000C94C4000C94C4000C94C4007D
:100010000C94C4000C94C4000C94C4000C94C40050
:100020000C94C4000C94C4000C94C4000C94C40040
:100030000C94C4000C94C4000C94C4000C94C40030
:100040000C94C4000C94C4000C94C4000C94C40020
:100050000C94C40000407A10F35A00A0724E1809A4
:100060000010A5D4E80000E87648170000E40B541F
:10007000020000CA9A3B000000E1F50500008096EE
:100080009800000040420F000000A0860100000020
:10009000102700000000E8030000000064000000DA
:1000A00000000A00000000000100000000002C76A3
:1000B000D888DC674F0823DFC1DFAE59E1B1B796BE
:1000C000E5E3E453C63AE651997696E8E6C284261B
:1000D000EB898C9B62ED407C6FFCEFBC9C9F40F2F7
:1000E000BAA56FA5F490055A2AF75C936B6CF96773
:1000F0006DC11BFCE0E40D47FEF520E6B500D0ED38
:10010000902E0300943577050080841E080000209F
:100110004E0A000000C80C333333330F986E12833D
:100120001141EF8D2114893BE65516CFFEE6DB1811
:10013000D1844B381BF77C1D901DA4BBE4242032D6
:1001400084725E228100C9F124ECA1E53D271124CF
:100150001FBECFE5D8E0DEBFCDBF10E0A0E6B0E027
:10016000E8E6FAE102C005900D92A03DB107D9F78B
:1001700020E0A0EDB0E001C01D92A03DB207E1F784
:100180000E94AC040C94320D0C940000672B09F013
:10019000DFC0009721F48BB38E7F8BBB0895813035
:1001A000910521F48BB38D7F8BBB0895823091052F
:1001B00021F48BB38B7F8BBB08958330910521F4A1
:1001C0008BB3877F8BBB08958430910521F48BB36B
:1001D0008F7E8BBB08958530910521F48BB38F7D85
:1001E0008BBB08958630910521F48BB38F7B8BBB3D
:1001F00008958730910521F48BB38F778BBB0895D9
:100200008A30910521F488B38E7F88BB08958B30A6
:10021000910521F488B38D7F88BB08958C309105BA
:1002200021F488B38B7F88BB08958D30910521F42C
:1002300088B3877F88BB08958E30910521F488B3F9
:100240008F7E88BB08958F30910521F488B38F7D10
:1002500088BB08958031910521F488B38F7B88BBDA
:1002600008958131910521F488B38F7788BB089573
:100270008431910521F485B38E7F85BB0895853146
:10028000910521F485B38D7F85BB08958631910555
:1002900021F485B38B7F85BB08958731910521F4C7
:1002A00085B3877F85BB08958831910521F485B397
:1002B0008F7E85BB08958931910521F485B38F7DAB
:1002C00085BB08958A31910521F485B38F7B85BB69
:1002D00008958B31910521F485B38F7785BB0895FF
:1002E0008E31910521F482B38E7F82BB08958F31C8
:1002F000910521F482B38D7F82BB089580329105F0
:1003000021F482B38B7F82BB08958132910521F461
:1003100082B3877F82BB08958232910521F482B334
:100320008F7E82BB08958332910521F482B38F7D45
:1003300082BB08958432910521F482B38F7B82BB06
:100340000895859709F0E1C082B38F7782BB089545
:10035000009721F48BB381608BBB089581309105A8
:1003600021F48BB382608BBB08958230910521F418
:100370008BB384608BBB08958330910521F48BB3DC
:1003800088608BBB08958430910521F48BB3806124
:100390008BBB08958530910521F48BB380628BBBB4
:1003A00008958630910521F48BB380648BBB08954A
:1003B0008730910521F48BB380688BBB08958A3018
:1003C000910521F488B3816088BB08958B30910535
:1003D00021F488B3826088BB08958C30910521F4A4
:1003E00088B3846088BB08958D30910521F488B36B
:1003F000886088BB08958E30910521F488B38061B0
:1004000088BB08958F30910521F488B3806288BB42
:1004100008958031910521F488B3806488BB0895E4
:100420008131910521F488B3806888BB08958431B7
:10043000910521F485B3816085BB089585319105CF
:1004400021F485B3826085BB08958631910521F43E
:1004500085B3846085BB08958731910521F485B308
:10046000886085BB08958831910521F485B380614A
:1004700085BB08958931910521F485B3806285BBE0
:1004800008958A31910521F485B3806485BB089570
:100490008B31910521F485B3806885BB08958E3139
:1004A000910521F482B3816082BB08958F3191055B
:1004B00021F482B3826082BB08958032910521F4D9
:1004C00082B3846082BB08958132910521F482B3A6
:1004D000886082BB08958232910521F482B38061E5
:1004E00082BB08958332910521F482B3806282BB7E
:1004F00008958432910521F482B3806482BB08950B
:10050000859719F482B3806882BB0895CF93C82F72
:1005100080FF07C061E070E082E290E00E94C600C8
:1005200006C060E070E082E290E00E94C600C1FF79
:1005300007C061E070E083E290E00E94C60006C060
:1005400060E070E083E290E00E94C600C2FF07C056
:1005500061E070E084E290E00E94C60006C060E0C6
:1005600070E084E290E00E94C600C3FF07C061E033
:1005700070E085E290E00E94C60006C060E070E096
:1005800085E290E00E94C600CF910895CF93C82FD6
:1005900060E070E08AE190E00E94C6008C2F0E942B
:1005A000860261E070E08BE190E00E94C60089EF76
:1005B00090E00197F1F700C0000060E070E08BE18F
:1005C00090E00E94C60089EF90E00197F1F700C02B
:1005D0000000CF91089580E00E94C60281E00E9451
:1005E000C6020895CF93813061F480E8860FC62F4C
:1005F000CF7082958F700E94C6028C2F0E94C60217
:100600000DC0823059F480EC860FC62FCF708295D2
:100610008F700E94C6028C2F0E94C602CF9108954F
:1006200080E00E94860287E893E10197F1F700C01D
:10063000000083E00E94C60281EE94E00197F1F78A
:1006400000C0000083E00E94C6028DEB9AE0019793
:10065000F1F700C0000083E00E94C60282E00E9421
:10066000C60282E00E94C60288E00E94C60280E0C4
:100670000E94C6028CE00E94C60280E00E94C60270
:1006800086E00E94C6020895CF93DF93D82FDF70D3
:10069000C82FC07F61E070E08AE190E00E94C60050
:1006A0008C2F82958F700E94860261E070E08BE152
:1006B00090E00E94C60089EF90E00197F1F700C03A
:1006C000000060E070E08BE190E00E94C60089EFDE
:1006D00090E00197F1F700C000008D2F0E94860284
:1006E00061E070E08BE190E00E94C60089EF90E04D
:1006F0000197F1F700C0000060E070E08BE190E04E
:100700000E94C60089EF90E00197F1F700C0000059
:10071000DF91CF9108950F931F93CF93DF938C01B7
:10072000C0E0D0E003C00E9444032196F801EC0F22
:10073000FD1F80818111F7CFDF91CF911F910F9124
:10074000089589B990BD80B5866880BD88E18AB971
:1007500008955D9BFECF8CB908950F931F93CF939F
:10076000DF938C01C0E0D0E003C00E94A903219672
:10077000F801EC0FFD1F80818111F7CFDF91CF9140
:100780001F910F910895CF92DF92EF92FF920F93F6
:100790001F93CF93DF93CDB7DEB7A8970FB6F8942A
:1007A000DEBF0FBECDBF6B017A011A821982FE0136
:1007B000339626E2DF011D922A95E9F78E010F5F3D
:1007C0001F4FF80101900020E9F7319720E738E446
:1007D000318320832AE330E033832283BC01C801C4
:1007E0000E94BE0AD8010D900020E9F711978DE014
:1007F000EBE9F0E001900D928A95E1F7B601C801AE
:100800000E94BE0AD8010D900020E9F7119787E0F9
:10081000E8EAF0E001900D928A95E1F7B701C8018E
:100820000E94BE0A81E40E94A90387EA91E601972B
:10083000F1F700C0000084E50E94A9039FE9A6E843
:10084000B1E09150A040B040E1F700C000008DE061
:100850000E94A9032FE986E891E021508040904052
:10086000E1F700C0000080E790E00E94AD03AFE731
:10087000BAE126E0A150B0402040E1F700C00000FE
:1008800081E40E94A90384E50E94A9038BE20E94EF
:10089000A90383E40E94A9038DE40E94A90387E4CD
:1008A0000E94A90383E50E94A9038DE30E94A90386
:1008B00082E20E94A9038BE20E94A90388E30E94BE
:1008C000A90388E30E94A90380E30E94A90381E3AE
:1008D0000E94A90387E30E94A90388E30E94A90359
:1008E00089E30E94A90389E30E94A90384E30E948B
:1008F000A90389E30E94A90386E30E94A90381E377
:100900000E94A90385E30E94A90382E20E94A90331
:100910008DE00E94A9038FE39DE0A3E08150904009
:10092000A040E1F700C00000C8010E94AD038AE1C9
:100930000E94A9038DE00E94A903A8960FB6F8941F
:10094000DEBF0FBECDBFDF91CF911F910F91FF9002
:10095000EF90DF90CF900895CF93DF93CDB7DEB7C0
:100960006A970FB6F894DEBF0FBECDBF8FEF81BB85
:1009700084BB87BB0E9410030E94EB0283E390E0DC
:100980000E94A10360E081E00E94F2028FEA90E001
:100990000E948B032FEF88E09DE321508040904020
:1009A000E1F700C000000E94EB0285E0EBECF0E014
:1009B000DE01119601900D928A95E1F785E0EBEC4E
:1009C000F0E0DE01169601900D928A95E1F785E040
:1009D000EBECF0E0DE011B9601900D928A95E1F7B9
:1009E00018BA412C512C612C712C212C312C83E60E
:1009F00087B980E886B901E010E0C12CD12C7601DE
:100A00002DC086B1806486B93699FECF65B170E09D
:100A1000660F771F660F771F072E000C880B990B48
:100A20000E942F0920E030E040EA50E40E94E409EF
:100A300020E030E040E85AE30E94E40920E030E0A2
:100A400040E251E40E94E4099B01AC01C701B601F8
:100A50000E9414086B017C010F5F1F4F05301105C8
:100A600084F220E030E040EA50E4C701B6010E9481
:100A700085086C8B7D8B8E8B9F8B84E687B980E895
:100A800086B900E010E0188A198A1A8A1B8A75C094
:100A900086B1806486B93699FECF65B170E0660F85
:100AA000771F660F771F072E000C880B990B0E948B
:100AB0002F0920E030E040EA50E40E94E40920E001
:100AC00030E040E85AE30E94E4096B017C0126E62D
:100AD00032E743EB55E40E94E4094B015C012DEC45
:100AE0003CE04CE854E4C701B6010E94E4099B01D4
:100AF000AC01C701B6010E94E4099B01AC01C5012C
:100B0000B4010E94130823E337E048E855E40E944B
:100B100013080E94510A4B015C0126E636E646E8BE
:100B200050E4C701B6010E94DF0988235CF420E08D
:100B300030E040E250E4C701B6010E948008181678
:100B40002CF40DC0812C912C540109C00F2E812C46
:100B5000F0E89F2EFBE3AF2EF5E4BF2EF02DA501AC
:100B60009401688979898A899B890E941408688B15
:100B7000798B8A8B9B8B0F5F1F4F053011050CF40F
:100B800087CF20E030E040EA50E4688979898A899B
:100B90009B890E9485080E94F7084B015C0160E078
:100BA00081E00E94F2028AEB90E00E948B03B40184
:100BB000092C000C880B990B0E942F098E01055FF0
:100BC0001F4F20E044E00E949E0A60E082E00E9405
:100BD000F202C8010E948B032BE0821691041CF0E4
:100BE00081E090E002C080E090E0AA24A394019705
:100BF00009F0A12C81E06A94672809F080E08A2935
:100C0000BB24B3944A94452809F0B12C811102C049
:100C1000BB2089F021143104E9F4AE014A5F5F4F33
:100C2000BE01655F7F4FCE0101960E94C30322245F
:100C30002394312C0FC02114310461F0AE014A5FBE
:100C40005F4FBE01655F7F4FCE0101960E94C303D7
:100C5000212C312C28BA8FE39DE023E08150904075
:100C60002040E1F700C0000081E687B980E886B93E
:100C700000E010E0412C512C320156C086B1806456
:100C800086B93699FECF65B170E0660F771F660FA3
:100C9000771F072E000C880B990B0E942F0920E06C
:100CA00030E040EA50E40E94E40920E030E040E80F
:100CB0005AE30E94E4096B017C0123E333E343E838
:100CC00050E40E94DF098823BCF020E030E040EFD0
:100CD00050E4C701B6010E94850826E636E646EDD7
:100CE00050E40E9414089B01AC01C301B2010E94B0
:100CF00014082B013C0116C020E030E040EF50E426
:100D0000C701B6010E94850820E030E040E650E4CB
:100D10000E9414089B01AC01C301B2010E94140897
:100D20002B013C010F5F1F4F043611050CF4A6CFB9
:100D300020E030E048EC52E4C301B2010E94850893
:100D40006B017C0166E081E00E94F20280EC90E0A1
:100D50000E948B038E010F5F1F4F21E044E0C7010B
:100D6000B6010E949E0A66E082E00E94F202C8017B
:100D70000E948B0320E030E040ED50E4C701B60153
:100D80000E948008882374F020E030E048E051E4BD
:100D9000C701B6010E94DF09181644F46624639463
:100DA000712C06C066246394712C02C0612C712CD6
:100DB00081E091E06916710409F080E08A29888F4A
:100DC000B11002C0882389F021143104E9F4AE0186
:100DD0004A5F5F4FBE01655F7F4FCE0101960E9463
:100DE000C30322242394312C0FC02114310461F059
:100DF000AE014A5F5F4FBE01655F7F4FCE01019636
:100E00000E94C303212C312C28BA2FE38DE093E0FC
:100E1000215080409040E1F700C0000082E687B991
:100E200080E886B900E010E0812C912C54017A8E84
:100E3000698E8BC086B1806486B93699FECF65B164
:100E400070E0660F771F660F771F072E000C880B68
:100E5000990B0E942F0920E030E040EA50E40E9404
:100E6000E40920E030E040E85AE30E94E4096B0125
:100E70007C0120E030E048EC51E46C897D898E896A
:100E80009F890E9413082AE037ED43EA5CE30E9441
:100E9000E40920E030E040E85FE30E9414082B0101
:100EA0003C01A7019601C701B6010E94E4099B011C
:100EB000AC01C701B6010E94E40925E83BE645E024
:100EC00053E40E94E409688B798B8A8B9B8B29E21F
:100ED0003CED4FE753E4C701B6010E94E4099B01D2
:100EE000AC01C701B6010E94E4099B01AC0168890D
:100EF00079898A899B890E941308688B798B8A8BF0
:100F00009B8B26EF38E546E554E4C701B6010E9405
:100F1000E4099B01AC01688979898A899B890E94CF
:100F2000140820E030E040E05FE30E94E409A30100
:100F300092010E9485089B01AC01C501B4010E9489
:100F400014084B015C010F5F1F4F053011050CF4B5
:100F500071CF698C7A8C20E030E040EA50E4C50122
:100F6000B4010E9485086B017C016BE081E00E9466
:100F7000F20285EC90E00E948B038E010A5F1F4F06
:100F800020E044E0C701B6010E949E0A6BE082E0C7
:100F90000E94F202C8010E948B0320E030E04AE781
:100FA00054E4C701B6010E94DF09181624F4442452
:100FB0004394512C02C0412C512C81E021E0421677
:100FC000510409F080E0988D911102C0882389F0C6
:100FD00021143104E9F4AE014A5F5F4FBE01655F41
:100FE0007F4FCE0101960E94C30322242394312C0B
:100FF0000FC02114310461F0AE014A5F5F4FBE01A2
:10100000655F7F4FCE0101960E94C303212C312CD6
:1010100028BA2FE38DE093E0215080409040E1F723
:1010200000C00000E4CC5058BB27AA270E942B0820
:101030000C94A5090E94970938F00E949E0920F09F
:1010400039F49F3F19F426F40C9494090EF4E095BA
:10105000E7FB0C948E09E92F0E94B60958F3BA17E2
:10106000620773078407950720F079F4A6F50C94BE
:10107000D8090EF4E0950B2EBA2FA02D0B01B90163
:1010800090010C01CA01A0011124FF27591B99F0FE
:10109000593F50F4503E68F11A16F040A22F232F0A
:1010A000342F4427585FF3CF469537952795A7955A
:1010B000F0405395C9F77EF41F16BA0B620B730B01
:1010C000840BBAF09150A1F0FF0FBB1F661F771F72
:1010D000881FC2F70EC0BA0F621F731F841F48F427
:1010E000879577956795B795F7959E3F08F0B0CFB0
:1010F0009395880F08F09927EE0F97958795089597
:101100000E946A0908F481E008950E9499080C94ED
:10111000A5090E949E0958F00E94970940F029F401
:101120005F3F29F00C948E0951110C94D9090C944D
:1011300094090E94B60968F39923B1F3552391F3FA
:10114000951B550BBB27AA2762177307840738F036
:101150009F5F5F4F220F331F441FAA1FA9F335D093
:101160000E2E3AF0E0E832D091505040E695001C47
:10117000CAF72BD0FE2F29D0660F771F881FBB1F01
:10118000261737074807AB07B0E809F0BB0B802DDF
:10119000BF01FF2793585F4F3AF09E3F510578F00B
:1011A0000C948E090C94D9095F3FE4F3983ED4F374
:1011B000869577956795B795F7959F5FC9F7880FDF
:1011C000911D9695879597F90895E1E0660F771F31
:1011D000881FBB1F621773078407BA0720F0621BC2
:1011E000730B840BBA0BEE1F88F7E09508950E94ED
:1011F000FE086894B1110C94D90908950E94BE09A3
:1012000088F09F5798F0B92F9927B751B0F0E1F0C7
:10121000660F771F881F991F1AF0BA95C9F714C077
:10122000B13091F00E94D809B1E008950C94D8092A
:10123000672F782F8827B85F39F0B93FCCF38695B0
:1012400077956795B395D9F73EF49095809570950D
:1012500061957F4F8F4F9F4F0895E89409C097FB8A
:101260003EF490958095709561957F4F8F4F9F4F7D
:101270009923A9F0F92F96E9BB279395F6958795C1
:1012800077956795B795F111F8CFFAF4BB0F11F484
:1012900060FF1BC06F5F7F4F8F4F9F4F16C088232B
:1012A00011F096E911C0772321F09EE8872F762F61
:1012B00005C0662371F096E8862F70E060E02AF0A2
:1012C0009A95660F771F881FDAF7880F969587958E
:1012D00097F90895990F0008550FAA0BE0E8FEEF63
:1012E00016161706E807F907C0F012161306E407EA
:1012F000F50798F0621B730B840B950B39F40A26E3
:1013000061F0232B242B252B21F408950A2609F4C0
:10131000A140A6958FEF811D811D089597F99F67C4
:1013200080E870E060E008959FEF80EC089500246D
:101330000A941616170618060906089500240A943A
:1013400012161306140605060895092E0394000CC0
:1013500011F4882352F0BB0F40F4BF2B11F460FF4F
:1013600004C06F5F7F4F8F4F9F4F089557FD905878
:10137000440F551F59F05F3F71F04795880F97FB59
:10138000991F61F09F3F79F0879508951216130613
:101390001406551FF2CF4695F1DF08C01616170642
:1013A0001806991FF1CF8695710561050894089577
:1013B000E894BB2766277727CB0197F908950E9409
:1013C0006A0908F48FEF08950E94F7090C94A509A3
:1013D0000E94970938F00E949E0920F0952311F091
:1013E0000C948E090C94940911240C94D9090E9430
:1013F000B60970F3959FC1F3950F50E0551F629F9A
:10140000F001729FBB27F00DB11D639FAA27F00D5D
:10141000B11DAA1F649F6627B00DA11D661F829F84
:101420002227B00DA11D621F739FB00DA11D621F69
:10143000839FA00D611D221F749F3327A00D611D86
:10144000231F849F600D211D822F762F6A2F112468
:101450009F5750409AF0F1F088234AF0EE0FFF1F9B
:10146000BB1F661F771F881F91505040A9F79E3FF2
:10147000510580F00C948E090C94D9095F3FE4F378
:10148000983ED4F3869577956795B795F795E79548
:101490009F5FC1F7FE2B880F911D9695879597F951
:1014A00008950E94BE09E8F09E37E8F09639B8F436
:1014B0009E3848F4672F782F8827985FF9CF869554
:1014C0007795679593959539D0F3B62FB1706B0FDB
:1014D000711D811D20F487957795679593950C94E0
:1014E000750A0C94900A0C94D909882371F4772317
:1014F00021F09850872B762F07C0662311F4992787
:101500000DC09051862B70E060E02AF09A95660F2E
:10151000771F881FDAF7880F9695879597F90895B2
:101520009F3F31F0915020F4879577956795B79557
:10153000880F911D9695879597F90895EF920F93CF
:101540001F93CF93DF93E80147FD02C034E001C051
:1015500034E1042E000C550B57FF03C05195419503
:101560005109E32E022F242FAE010E94C90ACE0199
:10157000DF91CF911F910F91EF900895FB01DC0156
:101580000D900020E9F7119701900D920020E1F7EE
:101590000895A9E0B0E0EFECFAE00C94010D6A01C7
:1015A000122FB02E2BE3201720F0FF24F394F00E1F
:1015B00002C02CE3F22E0F2D27E0AE014F5F5F4FEC
:1015C0000E94230CBC014981842F8970813031F045
:1015D000E1FC06C0E0FE06C090E205C09DE203C04B
:1015E0009BE201C090E05E2D507143FF3CC0911121
:1015F00002C083E001C084E0811718F4212F281B6A
:1016000001C020E051110BC0F601822F30E2882387
:1016100019F031938150FBCFC20ED11C20E09923E9
:1016200029F0D6019C93F60131966F01C60103960D
:10163000E2FE0AC03EE4D6013C9341E411964C938D
:10164000119712963C9306C03EE6F601308341E6C0
:1016500041833283FC01322F40E2332309F442C03C
:1016600041933150FACF42FF44C0911102C083E050
:1016700001C084E0811718F4212F281B01C020E04D
:1016800051110BC0F601822F30E2882319F03193FB
:101690008150FBCFC20ED11C20E0992329F0D60146
:1016A0009C93F60131966F01C6010396E2FE0BC0D2
:1016B00039E4D6013C933EE411963C93119736E40D
:1016C00012963C9307C039E6F60130833EE631833B
:1016D00036E63283FC01322F40E2332319F0419386
:1016E0003150FBCFFC01E20FF11D10828EEF9FEF16
:1016F000A6C021E030E0911102C020E030E01616D3
:1017000017061CF4FB01319602C0E1E0F0E02E0F59
:101710003F1FBB2021F0EB2DF0E0319602C0E0E04E
:10172000F0E02E0F3F1FE12FF0E02E173F071CF4D3
:10173000121B212F01C020E08E2D887159F4F60173
:10174000822F30E2882319F031938150FBCFC20EF3
:10175000D11C20E0992329F0D6019C93F601319603
:101760006F0151110BC0F601822F90E3882319F00D
:1017700091938150FBCFC20ED11C20E00F2D060F9C
:101780009A81342F307144FF03C0913309F4015022
:10179000101624F4093018F008E001C001E0AB0194
:1017A00077FF02C040E050E0FB01E41BF50BA1E035
:1017B000B0E0AC0FBD1FEA0FFB1F8EE2A82E4B015D
:1017C000801A91080B2D10E01195019511094F3FDA
:1017D000BFEF5B0721F4D601AC9211966D0164173F
:1017E00075072CF08416950614F4818101C080E3FE
:1017F000415051093196D60111967D01401751078C
:1018000024F0D6018C936701E2CF6417750739F491
:10181000963320F4953319F4311101C081E3F601B8
:101820008083F701822F90E2882319F091938150F1
:10183000FBCFF701E20FF11D108280E090E02996C6
:10184000ECE00C941D0D283008F027E03327DA0176
:10185000990F311D87FD916000966105710539F47E
:1018600032602E5F3D9330E32A95E1F708959F3F64
:1018700030F080387105610509F03C5F3C5F3D93B5
:10188000913008F08068911DDF93CF931F930F93E1
:10189000FF92EF92192F987F9695E92F969596953E
:1018A000E90FFF27E255FF4F99273327EE24FF2446
:1018B000A701E70105900894079428F4360FE71E66
:1018C000F81E491F511D660F771F881F991F069428
:1018D000A1F70590079428F4E70EF81E491F561F3C
:1018E000C11D770F881F991F661F0694A1F70590E9
:1018F000079428F4F80E491F561FC71FD11D880FE3
:10190000991F661F771F0694A1F70590079420F48E
:10191000490F561FC71FD81F990F661F771F881FB3
:101920000694A9F784911095177041F0D695C79544
:1019300057954795F794E7941A95C1F7E4E5F0E0D9
:1019400068941590159135916591959105907FE278
:101950007395E118F10A430B560BC90BD009C0F778
:10196000E10CF11E431F561FC91FD01D7EF47033BA
:1019700011F48A95E6CFE894015030F0080F0AF48C
:101980000027021708F4202F2395022F7A3328F01E
:1019900079E37D932A95E9F710C07D932A9589F61E
:1019A000069497956795379517951794E118F10A5E
:1019B000430B560BC90BD00998F023957E91739574
:1019C0007A3308F070E37C932013B8F77E9170614E
:1019D0007D9330F0839571E37D9370E32A95E1F771
:1019E0001124EF90FF900F911F91CF91DF919927D4
:1019F00087FD909508952F923F924F925F926F923C
:101A00007F928F929F92AF92BF92CF92DF92EF928E
:101A1000FF920F931F93CF93DF93CDB7DEB7CA1B0F
:101A2000DB0B0FB6F894DEBF0FBECDBF09942A883A
:101A3000398848885F846E847D848C849B84AA84E2
:101A4000B984C884DF80EE80FD800C811B81AA816F
:101A5000B981CE0FD11D0FB6F894DEBF0FBECDBF3A
:081A6000ED010895F894FFCF99
:101A680053656E64696E67206D65737361676500A1
:101A780041542B434D47463D310A0D0020466972BB
:101A88007374206D657373616765202020004D6550
:101A980073736167652073656E74002C20547572CA
:101AA8006269646974793A002C205444533A0047B7
:101AB800534D206D6F64756C65005475723A200043
:101AC80070483A20005444533A20006E756C6C00FC
:00000001FF
